:100000000C942A000C9447000C9447000C94470071
:100010000C9447000C9447000C9447000C94470044
:100020000C9447000C9447000C9447000C94490032
:100030000C9472000C9447000C9447000C944700F9
:100040000C9447000C9447000C9447000C94470014
:100050000C94470011241FBECFE5D4E0DEBFCDBF16
:1000600011E0A0E6B0E0E2E2F4E002C005900D92FB
:10007000A434B107D9F712E0A4E4B1E001C01D92A5
:10008000A936B107E1F70E94F7000C940F020C9417
:1000900000001F920F920FB60F9211242F938F938F
:1000A0009F93EF93FF939BB12CB1E0916602EF5FBA
:1000B00080916702E81711F482E008C0892F8871E7
:1000C000E0936602F0E0EC59FE4F208380936802D3
:1000D000FF91EF919F918F912F910F900FBE0F90F5
:1000E0001F9018951F920F920FB60F9211248F93A5
:1000F0009F93EF93FF93909164028091650298170C
:1001000061F0E0916502EF5FEF71E0936502F0E06E
:10011000EC5BFE4F80818CB901C05598FF91EF9147
:100120009F918F910F900FBE0F901F901895109276
:1001300066021092670208959C0110926402109268
:100140006502109266021092670297FF03C082E078
:100150008BB93F7730BD29B988E98AB986E880BD77
:1001600008959091660280916702981719F420E033
:1001700031E011C0E0916702EF5FE0936702F0E0C9
:10018000EC59FE4F308120916802922F80E0AC0143
:10019000430F511D9A01C90108955D9BFECF8CB993
:1001A00008955D9BFECF8CB90895FC0104C05D9B52
:1001B000FECF31968CB980818823C9F7089503C09A
:1001C0005D9BFECF2CB9FC01019624912223C1F73F
:1001D000089596B1976196B987B93E9A3D9A379A34
:1001E000369A349BFECF349A85B190E00895CF9231
:1001F000DF92EF92FF920F931F93DF93CF93CDB7D0
:10020000DEB72A970FB6F894DEBF0FBECDBF8FE0E2
:1002100084BB87E690E00E949C00789480E690E0A2
:100220000E94D500D09AD8986E010894C11CD11CA8
:1002300080E9E82E81E0F82E87E090E00E94E90056
:100240008C01B6014AE050E00E94CA018CE690E0C1
:100250000E94D5008CE690E00E94D5000B3F11056E
:1002600044F08CE690E00E94D5008FE690E00E947A
:10027000D500C801875E9040439740F48CE690E03B
:100280000E94D50084E890E00E94D500C801895CF6
:1002900090404D9740F48CE690E00E94D50088E9AC
:1002A00090E00E94D500C801855B9040439740F4E0
:1002B0008CE690E00E94D5008CEA90E00E94D50088
:1002C000C801875990404D9740F48CE690E00E9419
:1002D000D50080EC90E00E94D500C8018358904082
:1002E000439740F48CE690E00E94D50084ED90E0C6
:1002F0000E94D500C801855690404D9740F48CE689
:1003000090E00E94D50088EE90E00E94D500C801E0
:10031000875490404D9740F48CE690E00E94D500C1
:100320008CEF90E00E94D500C801C397439740F43A
:100330008CE690E00E94D50080E191E00E94D5001B
:10034000C80145974D9760F484E291E00E94D50082
:100350008CE690E00E94D50088E391E00E94D500F1
:100360000B5010400930110560F484E291E00E94C6
:10037000D5008CE690E00E94D50088E391E00E94D1
:10038000D50080E197E2F7013197F1F7019709F481
:1003900053CFF9CFFB019F01E8944230C4F04532BE
:1003A000B4F44A3029F497FB1EF4909581959F4F41
:1003B000642F77270E94FB01805D8A330CF0895DF2
:1003C0008193CB010097A1F716F45DE2519310825F
:1003D000C9010C94EB01DC01FC01672F71917723BB
:1003E000E1F7329704C07C916D9370836291AE17F0
:1003F000BF07C8F30895AA1BBB1B51E107C0AA1F82
:10040000BB1FA617B70710F0A61BB70B881F991FB5
:100410005A95A9F780959095BC01CD010895F8945F
:02042000FFCF0C
:10042200696E697469616C697A6564000A0D0042DB
:10043200415454455259204C4556454C203D20319B
:100442003030250042415454455259204C455645BE
:100452004C203D2039352500424154544552592003
:100462004C4556454C203D203830250042415454DD
:10047200455259204C4556454C203D2037302500E9
:1004820042415454455259204C4556454C203D203A
:100492003630250042415454455259204C45564568
:1004A2004C203D20353025004241545445525920BC
:1004B2004C4556454C203D2034352500424154548C
:1004C200455259204C4556454C203D203335250098
:1004D20042415454455259204C4556454C203D20EA
:1004E2003330250042415454455259204C4556451B
:1004F2004C203D2031302500424154544552592070
:040502004C4F570003
:00000001FF
