:100000000C942A000C9447000C9447000C94470071
:100010000C9447000C9447000C9447000C94470044
:100020000C9447000C9447000C9447000C94490032
:100030000C9472000C9447000C9447000C944700F9
:100040000C9447000C9447000C9447000C94470014
:100050000C94470011241FBECFE5D4E0DEBFCDBF16
:1000600010E0A0E6B0E0EAE8F3E002C005900D92EF
:10007000AA38B107D9F711E0AAE8B0E001C01D9293
:10008000AF3AB107E1F70E94F7000C94C3010C945A
:1000900000001F920F920FB60F9211242F938F938F
:1000A0009F93EF93FF939BB12CB1E091AC01EF5F75
:1000B0008091AD01E81711F482E008C0892F8871A2
:1000C000E093AC01F0E0E655FF4F20838093AE0152
:1000D000FF91EF919F918F912F910F900FBE0F90F5
:1000E0001F9018951F920F920FB60F9211248F93A5
:1000F0009F93EF93FF939091AA018091AB01981782
:1001000061F0E091AB01EF5FEF71E093AB01F0E0E4
:10011000E657FF4F80818CB901C05598FF91EF9150
:100120009F918F910F900FBE0F901F901895109276
:10013000AC011092AD0108959C011092AA01109299
:10014000AB011092AC011092AD0197FF03C082E0A9
:100150008BB93F7730BD29B988E98AB986E880BD77
:1001600008959091AC018091AD01981719F420E0A9
:1001700031E011C0E091AD01EF5FE093AD01F0E03F
:10018000E655FF4F30812091AE01922F80E0AC0107
:10019000430F511D9A01C90108955D9BFECF8CB993
:1001A00008955D9BFECF8CB90895FC0104C05D9B52
:1001B000FECF31968CB980818823C9F7089503C09A
:1001C0005D9BFECF2CB9FC01019624912223C1F73F
:1001D000089596B1976196B987B93E9A3D9A379A34
:1001E000369A349BFECF349A85B190E00895AF9251
:1001F000BF92CF92DF92EF92FF920F931F93DF9304
:10020000CF93CDB7DEB72A970FB6F894DEBF0FBEF7
:10021000CDBF8FE084BB87E690E00E949C0078947D
:1002200080E690E00E94D50086E690E00E94D5002E
:1002300080E395E720E931E0F9013197F1F7019783
:10024000D9F7D09AD8987E010894E11CF11C94E665
:10025000A92EB12C80E9C82E81E0D82E87E090E04D
:100260000E94E9008C01B7014AE050E00E9492012F
:1002700089E690E00E94D500C7010E94D50086E77C
:1002800090E00E94D5000A9DC0010B9D900D1A9D23
:10029000900D112460E071E00E946B01CB01B70169
:1002A0004AE050E00E94920188E790E00E94D50069
:1002B000C7010E94D50086E690E00E94D50086E640
:1002C00090E00E94D50080E197E2F6013197F1F7C6
:1002D0000197D9F7C3CF97FB092E07260AD077FDE0
:1002E00004D00CD006D000201AF4709561957F4F91
:1002F0000895F6F7909581959F4F0895AA1BBB1B13
:1003000051E107C0AA1FBB1FA617B70710F0A61B15
:10031000B70B881F991F5A95A9F780959095BC0136
:10032000CD010895FB019F01E8944230C4F04532AD
:10033000B4F44A3029F497FB1EF4909581959F4FB1
:10034000642F77270E947E01805D8A330CF0895DDF
:100350008193CB010097A1F716F45DE251931082CF
:10036000C9010C94B301DC01FC01672F7191772363
:10037000E1F7329704C07C916D9370836291AE1760
:0A038000BF07C8F30895F894FFCFFB
:10038A005354415254000A0D004144432076616C93
:10039A007565203D200009004261747465727920F8
:0A03AA006C6576656C203D200000B4
:00000001FF
